S018000075727350726F6A656B744B65797061642E7372656375
S11300000C942A000C9447000C9447000C9447006D
S11300100C9447000C9447000C94D5060C944700AC
S11300200C9447000C9447000C9447000C94470030
S11300300C9447000C9447000C9447000C94470020
S11300400C9447000C9447000C9447000C94470010
S11300500C94470011241FBECFE5D4E0DEBFCDBF12
S113006013E0A0E6B0E0E6E1F7E102C005900D92EE
S1130070AE31B107D9F723E0AEE1B3E001C01D9280
S1130080AA3BB207E1F70E94BA070C94890B0C94BF
S11300900000CF93DF930E945F0660E081E00E943E
S11300A0550689E291E00E947806809120039091A0
S11300B02103CAE0D0E0BE010E94810A80E3860FDA
S11300C00E9463068091200390912103BE010E9447
S11300D0810A805D0E946306DF91CF9108950E949A
S11300E05F0687E391E00E9478062FEF8FEF9CE292
S11300F0215080409040E1F700C000000E94490078
S11301002FEF8FEF99E5215080409040E1F700C038
S113011000000895CF93DF93EC010E94F50A6FE18C
S113012070E00E94810A0196FE01EE0FFF1FEC5C55
S1130130FC4F91838083803191057CF4FC01E85766
S1130140FC4F308120916400321307C02091650078
S1130150FC01E857FC4F208314C080319105ECF278
S11301609C0120513109F901EC58FC4F5081409118
S113017064005413D2CFF901EC58FC4F4091650050
S11301804083803191053CF0FC01EC59FC4F2091F7
S11301906500208309C08031910534F4FC01E857DF
S11301A0FC4F209165002083DF91CF9108950F9338
S11301B01F93CF93DF938C01C0E0D0E017C0FE0102
S11301C0EE0FFF1FEC5CFC4F80819181801791073B
S11301D061F480912003909121030196909321036F
S11301E080932003CE010E948A002196CA30D10553
S11301F034F3DF91CF911F910F9108950E945F0610
S113020060E080E00E94550688E893E00E9478064A
S113021061E080E00E94550684E793E00E9478063E
S11302202FEF8FE392E0215080409040E1F700C02F
S11302300000089520912803309129033093250369
S113024020932403409126035091270350932303C2
S113025040932203859B1BC089E995E10197F1F73F
S113026000C08599FECF80912603909127030197C2
S11302709093270380932603019609F05CC08FE0D6
S113028090E0909327038093260384E35BC0879BCD
S11302901AC04F5F5F4F509327034093260389E9A9
S11302A095E10197F1F700C08799FECF809126036D
S11302B090912703409709F040C0109227031092B1
S11302C0260386E33FC0869B19C02F5F3F4F3093C0
S11302D029032093280389E995E10197F1F700C0E8
S11302E08699FECF8091280390912903029739F5CE
S11302F0109229031092280382E324C0849B22C015
S113030021503109309329032093280389E995E189
S11303100197F1F700C08499FECF80912803909152
S11303202903019671F481E090E09093290380936E
S1130330280388E307C084E305C086E303C082E39F
S113034001C088E320912803309129032115310548
S1130350B9F4843311F0863399F4E0912603F091D3
S11303602703E857FC4F809166008083E0912203C5
S1130370F0912303E857FC4F80916400808349C0C7
S113038021153105A9F4823311F0883389F4809161
S1130390260390912703FC01E857FC4F4091660027
S11303A04083FC01EC58FC4F40916400408331C011
S11303B021153105B9F0843311F0863399F4E091B5
S11303C02603F0912703EC58FC4F8091660080834C
S11303D0E0912203F0912303EC58FC4F80916400D8
S11303E0808317C021153105A1F0823311F08833C1
S11303F081F48091260390912703FC01EC58FC4F73
S1130400409166004083FC01E857FC4F4091640032
S11304104083232B39F480912603909127030E9473
S1130420D70007C0809126039091270340960E942D
S1130430D7000E94FE0008950F931F93CF93DF937C
S1130440EC011092290310922803109227031092B2
S113045026030E945F0660E083E00E9455068AE45A
S113046092E00E9478062FEF8FEF9CE221508040AB
S11304709040E1F700C000000E945F0660E084E065
S11304800E94550688E491E00E9478062FEF8FEFD2
S11304909CE2215080409040E1F700C000000E949F
S11304A05F0660E080E00E9455068FE491E00E94C0
S11304B0780661E080E00E94550681E691E00E94A2
S11304C078062FEF8FEF9CE2215080409040E1F7B7
S11304D000C0000060E080E00E9455068FE691E0D5
S11304E00E94780661E080E00E94550680E891E071
S11304F00E9478062FEF8FE793E4215080409040CC
S1130500E1F700C00000809166008093880381E0D9
S113051090E007C0FC01E857FC4F20916400208361
S1130520019680319105B4F3FC01E857FC4F108229
S113053080E090E007C0FC01EC58FC4F209164007F
S11305402083019680319105B4F3FC01EC58FC4FF3
S1130550108200E010E04FC00E94F50A6FE170E0E5
S11305600E94810A9C012F5F3F4F203131057CF4AA
S1130570F901E857FC4F508140916400541307C0BF
S113058040916500F901E857FC4F408318C02031C1
S1130590310594F0AC014F505109FA01EC58FC4F6D
S11305A0708160916400761307C0FA01EC58FC4F27
S11305B060916500608303C0015011091AC0F801FD
S11305C0EE0FFF1FEC5CFC4F31832083203131059B
S11305D03CF4F901E857FC4F80916500808309C021
S11305E02031310534F0FC01EB59FC4F20916500BA
S11305F020830F5F1F4F0A3011050CF4ADCF0E940A
S1130600FE008881998190931F0380931E031092AA
S113061021031092200309C00E942D050E941A0193
S113062086E69EE00197F1F70000288139818091E8
S11306301E0390911F030F96281739076CF30E942D
S11306406F008091280390912903892B51F4E09144
S11306502603F0912703E857FC4F809164008083C0
S113066009C0E0912603F0912703EC58FC4F8091D8
S113067064008083DF91CF911F910F91089582B719
S1130680837090E008950F931F93CF93DF938B01B2
S1130690EA01FB0140815181423051058CF0E5B300
S11306A063E070E09B01241B350BA90121E030E0DD
S11306B002C0220F331F4A95E2F72E2725BB10C034
S11306C0E5B367E070E09B01241B350BA90121E031
S11306D030E002C0220F331F4A95E2F72E2725BBD4
S11306E0F801208131812C173D0741F4FC01208160
S11306F031812F5F3F4F318320831DC00E945F06ED
S113070060E084E00E94550680E991E00E9478064A
S1130710FFEF2FEF3CE2F15020403040E1F700C002
S113072000000E945F0660E084E00E9455068EE8A7
S113073092E00E94780689E995E10197F1F700C0FB
S113074080B327E030E02C1B3D0B90E002C0959570
S113075087952A95E2F780FDF3CF0E943F03F801C5
S113076091838083823091057CF045B323E030E0AF
S1130770281B390B81E090E002C0880F991F2A954D
S1130780E2F7842785BB0EC045B327E030E0281B81
S1130790390B81E090E002C0880F991F2A95E2F797
S11307A0842785BBDF91CF911F910F910895EF921C
S11307B0FF920F931F93CF93DF9300D000D0CDB758
S11307C0DEB77C010E945F0660E083E00E9455066C
S11307D089E991E00E9478062FEF8FEF9CE2215087
S11307E080409040E1F700C000000E945F06EFEFF8
S11307F0FFEF2CE2E150F0402040E1F700C00000A0
S11308000E945F0660E084E00E94550688E491E05F
S11308100E9478068FEF9FEFECE281509040E04019
S1130820E1F700C000000E945F0660E080E00E94E3
S1130830550684EA91E00E94780661E080E00E9417
S113084055068AEB91E00E947806FFEF2FE783E4D8
S1130850F15020408040E1F700C000008FEF84BBDE
S113086085BBF7018081918190932B0380932A03A8
S11308700E945F061A8219821C821B8285B38058EB
S113088085BB789471C0879B0AC040E050E0BE01EC
S11308906F5F7F4FCE0103960E94430323C0869B64
S11308A00AC041E050E0BE016F5F7F4FCE01039666
S11308B00E94430317C0859B0AC042E050E0BE017A
S11308C06F5F7F4FCE0103960E9443030BC0849B4E
S11308D009C043E050E0BE016F5F7F4FCE01039635
S11308E00E94430360E080E00E9455068CEC91E096
S11308F00E9478068B819C810AE010E0B8010E9476
S1130900810A80E3860F0E9463068B819C81B80173
S11309100E94810A805D0E94630661E080E00E947B
S1130920550684ED91E00E947806F701808191815B
S113093020912A0330912B03821B930BB8010E9450
S1130940810A80E3860F0E946306F701808191810A
S113095020912A0330912B03821B930BB8010E9430
S1130960810A805D0E946306F701208131818091B4
S11309702A0390912B038896281739070CF483CF08
S11309800E945F0660E080E00E94550629813A815A
S1130990223031058CF065B343E050E0CA01821B7C
S11309A0930B9C0181E090E002C0880F991F2A9567
S11309B0E2F7862785BB0FC065B347E050E0FA0134
S11309C0E21BF30B81E090E002C0880F991FEA95C7
S11309D0E2F7862785BB87E391E00E947806FFEF64
S11309E02FEF8CE2F15020408040E1F700C000007E
S11309F00E945F0660E081E00E9455068CEC91E065
S1130A000E94780661E080E00E9455068B819C81FB
S1130A100AE010E0B8010E94810A80E3860F0E9478
S1130A2063068B819C81B8010E94810A805D0E94CB
S1130A3063069FEFEFEFF9E59150E040F040E1F7F6
S1130A4000C000000F900F900F900F90DF91CF9196
S1130A501F910F91FF90EF90089580EF8ABB8FEF65
S1130A608BBB8FEE8BBB99B38091770089238093E6
S1130A7098038F3019F01092990329C08FED8BBB26
S1130A8099B3809177008923809398038F3021F064
S1130A9081E0809399031BC08FEB8BBB99B380914A
S1130AA077008923809398038F3021F082E080932C
S1130AB099030DC08FE78BBB99B38091770089238D
S1130AC0809398038F3019F083E080939903809189
S1130AD098038E3039F4E0919903F0E0E959FF4F1F
S1130AE0808108958D3039F4E0919903F0E0E9595B
S1130AF0FF4F848108958B3039F4E0919903F0E03D
S1130B00E959FF4F80850895873039F4E0919903BE
S1130B10F0E0E959FF4F848508958FE2089588B382
S1130B20806888BB00C088B38F7788BB0895CF9353
S1130B30C82F662321F088B3806288BB03C088B3C2
S1130B408F7D88BB88B38F7B88BB87B3816087BB6D
S1130B5087B3826087BB87B3846087BB87B38061B8
S1130B6087BB88B38F7E88BB88B38B7F88BB88B3F1
S1130B708D7F88BB88B38E7F88BBCC231CF488B35D
S1130B80806188BBC6FF03C088B3846088BBC5FF8F
S1130B9003C088B3826088BBC4FF03C088B381608C
S1130BA088BB0E948F0588B38F7E88BB88B38B7FF8
S1130BB088BB88B38D7F88BB88B38E7F88BBC3FF17
S1130BC003C088B3806188BBC2FF03C088B384605C
S1130BD088BBC1FF03C088B3826088BBC0FF03C069
S1130BE088B3816088BB0E948F0588B3816088BB0D
S1130BF088B3826088BB88B3846088BB88B3806113
S1130C0088BBCF910895882321F088B3806288BB84
S1130C1003C088B38F7D88BB88B3806488BB87B3E7
S1130C208E7F87BB87B38D7F87BB87B38B7F87BB63
S1130C3087B38F7E87BB88B3806888BB00C0B099B8
S1130C4002C080E001C080E1B1998062B299806401
S1130C50B499806898B39F7798BB00C098B39068A4
S1130C6098BB00C0B0998160B1998260B2998460E8
S1130C70B499886098B39F7798BB089580E00E94E8
S1130C8003068823DCF383E090E00197F1F780E02A
S1130C900E9403060895CF93C82F0E943E0660E089
S1130CA08C2F0E949705CF910895611104C080583C
S1130CB00E944B06089580540E944B06089581E0DB
S1130CC00E944B060895CF93C82F0E943E06CA3057
S1130CD049F4803410F480E401C080E080580E941C
S1130CE04B0604C061E08C2F0E949705CF910895B4
S1130CF0CF93DF93FC0103C00E946306FE01EF0162
S1130D00219680818111F8CFDF91CF9108951F93AF
S1130D10CF93DF93182F87B3806287BB87B3806438
S1130D2087BB87B3806887BB87B3816087BB87B382
S1130D30826087BB87B3846087BB87B3806187BBCE
S1130D4080E393E70197F1F788B3826088BB88B3A7
S1130D50816088BB0E948F0580EF93E20197F1F7D1
S1130D600E948F05C5E7D0E0CE010197F1F70E94FC
S1130D708F05CE010197F1F788B38E7F88BB0E945F
S1130D808F052197F1F788E20E944B0688E00E94C4
S1130D904B060E945F0686E00E944B06812F0E944C
S1130DA04B06DF91CF911F9108951F920F920FB6BA
S1130DB00F9211248F939F9380912C0390912D0374
S1130DC0019690932D0380932C039F918F910F9004
S1130DD00FBE0F901F901895CF93C82F2FEF8FE75A
S1130DE096E1215080409040E1F700C000000E944D
S1130DF05F0660E081E00E9455068DED91E00E945F
S1130E00780661E081E00E945506C13399F48BEEC7
S1130E1091E00E9478068C2F0E9463062FEF8FEFDB
S1130E209CE2215080409040E1F700C000000E9405
S1130E30C4093BC0C233A9F48BEE91E00E9478064A
S1130E408C2F0E9463062FEF8FEF9CE2215080408D
S1130E509040E1F700C000008CE293E00E94D703C9
S1130E6024C0C333A9F48BEE91E00E9478068C2F42
S1130E700E9463062FEF8FEF9CE221508040904048
S1130E80E1F700C000008CE293E00E941C020DC058
S1130E9088EF91E00E9478062FEF8FE793E42150CA
S1130EA080409040E1F700C000000E945F068CE0A3
S1130EB00E9487060E945F0687E092E00E947806FF
S1130EC02FEF8FE796E1215080409040E1F700C07A
S1130ED00000CF9108950E945F0660E080E00E94C8
S1130EE0550687E192E00E9478062FEF8FE796E19E
S1130EF0215080409040E1F700C0000061E080E0B4
S1130F000E94550686E292E00E9478062FEF8FEF4A
S1130F109CE2215080409040E1F700C000000E9414
S1130F205F0660E080E00E94550686E392E00E943E
S1130F3078062FEF8FE796E1215080409040E1F74B
S1130F4000C0000061E080E00E94550687E492E062
S1130F500E9478060E942D058F3211F00E94EC0643
S1130F602FEF8FEB96E0215080409040E1F700C0D6
S1130F700000F0CF88E087BB8AE683BF80E88CBF9F
S1130F8089B7806189BF8EB58C608EBD80E890E79B
S1130F909BBD8ABD80EF81BB8ABB8BB3806F8BBB4B
S1130FA078948CE00E9487060E945F0660E084E0EB
S1130FB00E94550684E592E00E94780661E086E08E
S1130FC00E9455068CE592E00E9478062FEF8FEF81
S1130FD09CE2215080409040E1F700C000000E9454
S1130FE05F0621E030E040E050E061E672E087E92E
S1130FF092E00E9406082FEF8FE995E0215080408F
S11310009040E1F700C000000E946B07AF92BF92CE
S1131010CF92DF92EF92FF920F931F93CF93DF93C0
S11310206C018B01A42EB22EEB0109900020E9F78C
S11310302197C61BD70BE12CF12C29C00E945F0617
S113104060E080E00E945506C6010E9478066B2D80
S11310508A2D0E945506C8010E94780680E090E01F
S113106006C0F801E80FF91F2181208301968C172F
S11310709D07BCF321972FEF8FEF98E0215080401C
S11310809040E1F700C000002FEFE21AF20AF801E5
S113109001900020E9F73197E01BF10BEE16FF06F3
S11310A068F2DF91CF911F910F91FF90EF90DF9045
S11310B0CF90BF90AF9008950E945F0660E083E0F8
S11310C00E94550683EA92E00E9478062FEF8FEF84
S11310D09CE2215080409040E1F700C0000060E0B5
S11310E080E00E9455068DEA92E00E94780661E055
S11310F080E00E9455068AE993E00E9478062FEF6B
S11311008FEF9CE2215080409040E1F700C0000046
S113111010927A001092790008950E945F0660E0B0
S113112081E00E9455068CEB92E00E9478062FEF36
S11311308FEF9CE2215080409040E1F700C0000016
S113114060E080E00E9455068DEA92E00E947806F5
S113115061E080E00E9455068AE993E00E947806E7
S11311602FEF8FEF9CE2215080409040E1F700C0C8
S1131170000010927A00109279000895CF93DF93C3
S11311800E945F0661E081E00E9455068AEA93E0CE
S11311900E94780660E081E00E945506E0913203E7
S11311A0F0913303E957FF4F8081CDE7D0E08A8384
S11311B088810E9463068A810E9463068C810E9452
S11311C063062FEF8FE392E0215080409040E1F7D7
S11311D000C0000080917B0090917C00892B11F469
S11311E00E945C086AE973E08AEA93E00E940C0BAF
S11311F0892B59F02FEF8FE796E1215080409040E2
S1131200E1F700C000000E948D08DF91CF9108959E
S1131210CF93DF930E945F0660E080E00E94550652
S11312208AEC92E00E94780661E081E00E94550613
S1131230C0E0D0E005C08CED92E00E9478062196D3
S113124080917B0090917C00C817D907A4F32FEFFD
S11312508FEB91E2215080409040E1F700C0000004
S1131260DF91CF91089520E030E01CC0F901E656EB
S1131270FC4F9081981314C0F901E655FC4F80830C
S113128040913003509131034F5F5F4F50933103CE
S11312904093300341E050E050932F0340932E03DA
S11312A02F5F3F4FEAE9F3E001900020E9F731971F
S11312B0EA59F3402E173F07C8F20E94BE088091F6
S11312C02E0390912F03892B79F40E9408098091B1
S11312D07B0090917C00019790937C0080937B002D
S11312E00E9408090E94BE080895859B12C080913F
S11312F03203909133030197909333038093320325
S11313000196C1F485E190E0909333038093320316
S113131011C0879B0FC080913203909133030196D3
S11313209093330380933203469721F4109233034E
S11313301092320360E082E00E945506E09132038D
S1131340F0913303E957FF4F808180937F000E941F
S113135063068FEF9FE724E0815090402040E1F73F
S113136000C00000869902C0849B0DC010922F0318
S113137010922E03E0913203F0913303E957FF4FAB
S113138080810E943309089581E090E090937A006F
S11313908093790010922F0310922E0385E090E041
S11313A090937C0080937B000E945F0660E082E063
S11313B00E94550689E292E00E9478062FEF8FEF93
S11313C09CE2215080409040E1F700C000000E9460
S11313D05F0660E084E00E94550688E491E00E9484
S11313E078062FEF8FEF9CE2215080409040E1F788
S11313F000C000000E945F0660E080E00E94550685
S113140080EE92E00E94780661E080E00E9455063A
S113141081EF92E00E9478062FEF8FEF9CE221503B
S113142080409040E1F700C000000E945F0660E049
S113143080E00E94550680E093E00E94780661E017
S113144080E00E94550682E193E00E9478062FEF27
S11314508FE793E4215080409040E1F700C0000002
S11314600E945F0622B78DEC289F812D112486955A
S113147086958695880F982F990F990F890F281BA9
S1131480822F90E0880F991FBC01660F771F660FAB
S1131490771F660F771F681B790B63567F4F8AE9A6
S11314A093E00E94050BEAE9F3E001900020E9F7DC
S11314B03197AF014A59534080E090E006C0FC01E7
S11314C0E655FC4F2FE52083019684179507BCF35E
S11314D0FC01E655FC4F10820E94BE080BC00E941E
S11314E075092FEF8FE191E0215080409040E1F7A2
S11314F000C000008091790090917A00892B79F7DF
S1131500089597FB072E16F4009407D077FD09D0B1
S11315100E94950A07FC05D03EF4909581959F4F53
S11315200895709561957F4F0895AA1BBB1B51E1E7
S113153007C0AA1FBB1FA617B70710F0A61BB70B3F
S1131540881F991F5A95A9F780959095BC01CD01E4
S113155008958F929F92AF92BF92CF92DF92EF92B3
S1131560FF92CF93DF93EC01688179818A819B811B
S1131570611571058105910521F464E279ED8BE52E
S113158097E02DE133EF41E050E00E94260B490142
S11315905A019B01AC01A7EAB1E40E94450B6B011F
S11315A07C01ACEEB4EFA50194010E94530BDC0165
S11315B0CB018C0D9D1DAE1DBF1DB7FF03C0019750
S11315C0A109B04888839983AA83BB839F77DF915D
S11315D0CF91FF90EF90DF90CF90BF90AF909F900E
S11315E08F9008950E94A90A089580E690E00E94D1
S11315F0A90A0895A0E0B0E0809360009093610090
S1131600A0936200B09363000895FB01DC01019094
S11316100D920020E1F70895FB0151915523A9F0A3
S1131620BF01DC014D9145174111E1F759F4CD019A
S11316300190002049F04D9140154111C9F3FB017F
S11316404111EFCF81E090E001970895052E97FBBB
S11316501EF400940E943D0B57FD07D00E94580BC6
S113166007FC03D04EF40C943D0B509540953095F7
S113167021953F4F4F4F5F4F0895909580957095FA
S113168061957F4F8F4F9F4F08950E947A0BA59FBE
S1131690900DB49F900DA49F800D911D1124089569
S11316A0B7FF0C94450B0E94450B821B930B0895C6
S11316B0A1E21A2EAA1BBB1BFD010DC0AA1FBB1F52
S11316C0EE1FFF1FA217B307E407F50720F0A21BC4
S11316D0B30BE40BF50B661F771F881F991F1A9431
S11316E069F760957095809590959B01AC01BD015B
S11316F0CF010895A29FB001B39FC001A39F700DB5
S1131700811D1124911DB29F700D811D1124911D05
S10917100895F894FFCFD8
S11317160100000020A5FC41313233423435364302
S1131726373839442A30230F00010005003C2020B5
S1131736203E0000000000414243444546474849D4
S11317464A4B4C4D4E4F5052535455565A55475288
S1131756414442454E49000000000041544D45476E
S113176641000000000000000050524F4A454B540F
S11317760000000000000053454E5A4F5249000035
S113178600000000005249544548000000000000D3
S113179600000050524F4752414D45520000000090
S11317A60052494A454B4100000000000000005029
S11317B6524F544555530000000000000041534564
S11317C64D424C45520000000000004B5554494A16
S11317D64100000000000000005661736920626F3A
S11317E6646F76693A20005672696A656D65206988
S11317F67374656B6C6F210055505554453A004E11
S1131806616872616E69206375646F766973746565
S113181600752031302073656B756E646921005044
S11318266F6D696369206A6F79737469636B2000ED
S11318367520736D6A657275206872616E652E0017
S1131846506F677265736E6F0052414E444F4D2060
S11318564C454400506F6D696369206A6F797374EF
S113186669636B207072656D61007570616C6A6581
S11318766E6F6A206C65646963692E00426F646FDB
S113188676693A005672696A656D653A004F646115
S11318966272616C69207374653A00696772696380
S11318A6752062726F6A20006E6576617A65636977
S11318B62062726F6A21004F6461626572692069F1
S11318C667726963753A004F64616265726920697B
S11318D66772753A2000312920504F474F444920FA
S11318E652494A4543003229205548564154492015
S11318F64C4544494355003329204355444F5649E2
S11319065354450041524B41444E450049475245C4
S1131916004C7563696A61204B2C20546F6E696EA6
S11319266F20542C2054656F205620202020202020
S1131936202020202020202020202020202020209D
S1131946202020202020005072697072656D696C19
S1131956693A0047616D65206F766572007472613D
S11319667A656E612072696A65633A00506F676FC3
S113197664696C692073746521005072656F7374B1
S1131986616C69207A69766F74693A003C33200089
S11319967A61206F646162697220736C6F76613A52
S11319A60020206C696A65766F2D6465736E6F001E
S11319B67A6120706F747672647520736C6F7661C9
S11119C63A002020676F72652F646F6C650015
S9030000FC
