S018000075727350726F6A656B744B65797061642E7372656375
S11300000C942A000C9447000C9447000C9447006D
S11300100C9447000C9447000C9494050C944700EE
S11300200C9447000C9447000C9447000C94470030
S11300300C9447000C9447000C9447000C94470020
S11300400C9447000C9447000C9447000C94470010
S11300500C94470011241FBECFE5D4E0DEBFCDBF12
S113006012E0A0E6B0E0E4EEF1E102C005900D92EA
S1130070A035B107D9F722E0A0E5B2E001C01D9296
S1130080A43DB207E1F70E94F8050C94F0080C9423
S11300900000CF93DF930E941E0560E080E00E9481
S11300A0140587E291E00E943705809152029091F5
S11300B05302CAE0D0E0BE010E94E80780E3860F45
S11300C00E9422058091520290915302BE010E9427
S11300D0E807805D0E942205DF91CF9108950E9478
S11300E01E0585E391E00E9437052FEF8FE796E127
S11300F0215080409040E1F700C000000E94490078
S11301002FEF8FE793E4215080409040E1F700C047
S11301100000089520E030E019C0F901EE0FFF1F40
S1130120E80FF91FA081B181A617B70769F4A2E30C
S1130130B0E0B183A083E0915202F0915302319672
S1130140F0935302E09352022F5F3F4F2417350779
S113015024F308950E941E0560E080E00E941405C7
S113016082EA92E00E94370561E080E00E94140573
S11301708AE792E00E9437052FEF8FE392E0215047
S113018080409040E1F700C00000089520915A0299
S113019030915B02309357022093560240915802EB
S11301A0509159025093550240935402859B10C0BC
S11301B0CA01019790935902809358020196E1F580
S11301C08FE090E0909359028093580284E33BC0FF
S11301D0879B0EC0CA0101969093590280935802DE
S11301E0409761F5109259021092580286E32BC091
S11301F0869B0FC02F5F3F4F30935B0220935A02C0
S113020022303105E9F410925B0210925A0282E323
S11302101AC0849B18C02150310930935B0220938B
S11302205A022F3F3F4F71F482E090E090935B02BB
S113023080935A0288E307C084E305C086E303C0C1
S113024082E301C088E320915A0230915B022115B8
S11302503105A1F4843311F0863381F4E09158021E
S1130260F0915902EE55FD4F809166008083FA01AA
S1130270EE55FD4F80916400808346C02115310501
S1130280A9F4823311F0883389F480915802909153
S11302905902FC01EE55FD4F409166004083FC017C
S11302A0E658FD4F4091640040832EC0211531056E
S11302B0A1F0843311F0863381F4E0915802F09177
S11302C05902E658FD4F809166008083FA01E65892
S11302D0FD4F80916400808317C021153105A1F082
S11302E0823311F0883381F480915802909159023D
S11302F0FC01E658FD4F409166004083FC01EE5539
S1130300FD4F409164004083232B69F44091A00287
S11303105091A102609158027091590286E692E0D0
S11303200E948A000CC040918A0250918B02609115
S11303305802709159028CE892E00E948A000E944F
S1130340AA000895AF92BF92CF92DF92EF92FF92EC
S11303500F931F93CF93DF938C0110925B02109243
S11303605A0210925902109258020E941E0560E02F
S113037084E00E94140588E491E00E9437052FEF81
S11303808FEF9CE2215080409040E1F700C00000D4
S11303900E941E0560E080E00E94140581E591E062
S11303A00E94370561E080E00E9414058EE591E02B
S11303B00E943705EFEFFFEF2CE2E150F0402040C0
S11303C0E1F700C00000809166008093A20281E002
S11303D090E007C0FC01EE55FD4F2091640020839E
S11303E0019680319105B4F3FC01EE55FD4F108266
S11303F080E090E007C0FC01E658FD4F20916400C6
S11304002083019680319105B4F3FC01E658FD4F39
S11304101082E12CF12CA12CB12CC12CD12C3AC08E
S11304200E945C0881709078992324F401978E6F60
S11304309F6F0196EC010E945C086FE070E00E94DF
S1130440E8070196209789F4FC01EE55FD4F2091B1
S113045065002083F601EE0FFF1FEA59FD4F9183DB
S113046080838FEFC81AD80A12C0CD2B81F0FC010B
S1130470E658FD4F209165002083F501EE0FFF1F24
S1130480E457FD4F918380839FEFA91AB90AEFEFD8
S1130490EE1AFE0AFAE0EF16F10414F2D092A10269
S11304A0C092A002B0928B02A0928A020E94AA007B
S11304B0F8018081918190935102809350021092AF
S11304C05302109252020DC00E94EC030E94C60017
S11304D0FFEF2FE181E0F15020408040E1F700C0C0
S11304E00000F801208131818091500290915102E5
S11304F00F962817390744F30E946F0080915A021F
S113050090915B02892B51F4E0915802F0915902C9
S1130510EE55FD4F80916400808309C0E09158023C
S1130520F0915902E658FD4F809164008083DF9179
S1130530CF911F910F91FF90EF90DF90CF90BF90DC
S1130540AF90089582B7837090E008950F931F933E
S1130550CF93DF938B01EA016BB3F80120813181E2
S113056047E050E0421B530B21E030E002C0220F71
S1130570331F4A95E2F726272BBB208131812C17A4
S11305803D0741F4FC01208131812F5F3F4F3183CE
S1130590208319C060E084E00E9414058BE691E09A
S11305A00E943705FFEF2FEF8CE2F150204080408E
S11305B0E1F700C0000060E084E00E94140584E7D5
S11305C091E00E943705E9E9F5E13197F1F700C0C0
S11305D080B327E030E02C1B3D0B90E002C09595E2
S11305E087952A95E2F780FDF3CF0E94A202F801D5
S11305F0918380836BB327E030E0281B390B81E0C3
S113060090E002C0880F991F2A95E2F786278BBBDA
S1130610DF91CF911F910F910895EF92FF920F9365
S11306201F93CF93DF9300D000D0CDB7DEB77C010A
S1130630FC018081918190935D0280935C020E9411
S11306401E051A8219821C821B828BB380588BBBB5
S1130650789481C0879B0EC040E050E0BE016F5F7C
S11306607F4FCE0103960E94A6028DE791E00E947F
S113067037052FC0869B0EC041E050E0BE016F5F7E
S11306807F4FCE0103960E94A6028FE791E00E945D
S113069037051FC0859B0EC042E050E0BE016F5F6E
S11306A07F4FCE0103960E94A60281E891E00E944A
S11306B037050FC0849B0DC043E050E0BE016F5F5F
S11306C07F4FCE0103960E94A60283E891E00E9428
S11306D0370561E081E00E9414058981805D0E94F4
S11306E022058AE791E00E9437058B819C810AE00C
S11306F010E0B8010E94E80780E3860F0E942205FB
S11307008B819C81B8010E94E807805D0E942205CC
S11307108AE791E00E943705F70180819181209159
S11307205C0230915D02821B930BB8010E94E807C2
S113073080E3860F0E942205F70180819181209138
S11307405C0230915D02821B930BB8010E94E807A2
S1130750805D0E942205F7012081318180915C0235
S113076090915D028896281739070CF473CF0E9484
S11307701E0560E080E00E94140585E891E00E9477
S1130780370561E080E00E9414058B819C810AE0BA
S113079010E0B8010E94E80780E3860F0E9422055A
S11307A08B819C81B8010E94E807805D0E9422052C
S11307B0FFEF2FE38BE0F15020408040E1F700C0D1
S11307C000000F900F900F900F90DF91CF911F9129
S11307D00F91FF90EF90089580EF8ABB8FEF8BBB52
S11307E08FEE8BBB99B38091770089238093B202FB
S11307F08F3019F01092B30229C08FED8BBB99B3DF
S11308008091770089238093B2028F3021F081E0B8
S11308108093B3021BC08FEB8BBB99B3809177009D
S113082089238093B2028F3021F082E08093B30257
S11308300DC08FE78BBB99B3809177008923809398
S1130840B2028F3019F083E08093B3028091B20238
S11308508E3039F4E091B302F0E0E959FF4F808122
S113086008958D3039F4E091B302F0E0E959FF4F77
S1130870848108958B3039F4E091B302F0E0E959B2
S1130880FF4F80850895873039F4E091B302F0E09A
S1130890E959FF4F848508958FE2089588B38068ED
S11308A088BB00C088B38F7788BB0895CF93C82FC7
S11308B0662321F088B3806288BB03C088B38F7D30
S11308C088BB88B38F7B88BB87B3816087BB87B3C2
S11308D0826087BB87B3846087BB87B3806187BB33
S11308E088B38F7E88BB88B38B7F88BB88B38D7FAA
S11308F088BB88B38E7F88BBCC231CF488B380610B
S113090088BBC6FF03C088B3846088BBC5FF03C02F
S113091088B3826088BBC4FF03C088B3816088BB8E
S11309200E944E0488B38F7E88BB88B38B7F88BBBC
S113093088B38D7F88BB88B38E7F88BBC3FF03C019
S113094088B3806188BBC2FF03C088B3846088BB5E
S1130950C1FF03C088B3826088BBC0FF03C088B3F3
S1130960816088BB0E944E0488B3816088BB88B3D1
S1130970826088BB88B3846088BB88B3806188BB8D
S1130980CF910895882321F088B3806288BB03C087
S113099088B38F7D88BB88B3806488BB87B38E7F20
S11309A087BB87B38D7F87BB87B38B7F87BB87B3B9
S11309B08F7E87BB88B3806888BB00C0B09902C0B3
S11309C080E001C080E1B1998062B2998064B499F9
S11309D0806898B39F7798BB00C098B3906898BB21
S11309E000C0B0998160B1998260B2998460B49971
S11309F0886098B39F7798BB089580E00E94C204F2
S1130A008823DCF383E090E00197F1F780E00E9413
S1130A10C2040895CF93C82F0E94FD0460E08C2F78
S1130A200E945604CF910895611104C080580E9419
S1130A300A05089580540E940A05089581E00E94E1
S1130A400A050895CF93C82F0E94FD04CA3049F4C3
S1130A50803410F480E401C080E080580E940A05CC
S1130A6004C061E08C2F0E945604CF910895CF9367
S1130A70DF93FC0103C00E942205FE01EF012196D1
S1130A8080818111F8CFDF91CF9108951F93CF9387
S1130A90DF93182F87B3806287BB87B3806487BBDB
S1130AA087B3806887BB87B3816087BB87B3826065
S1130AB087BB87B3846087BB87B3806187BB80E3D0
S1130AC093E70197F1F788B3826088BB88B38160AC
S1130AD088BB0E944E0480EF93E20197F1F70E94D5
S1130AE04E04C5E7D0E0CE010197F1F70E944E0411
S1130AF0CE010197F1F788B38E7F88BB0E944E0424
S1130B002197F1F788E20E940A0588E00E940A050D
S1130B100E941E0586E00E940A05812F0E940A0594
S1130B20DF91CF911F9108951F920F920FB60F92EC
S1130B3011248F939F9380915E0290915F0201969E
S1130B4090935F0280935E029F918F910F900FBEEE
S1130B500F901F901895CF93C82F0E941E0560E038
S1130B6081E00E94140586E991E00E94370561E066
S1130B7081E00E94140584EA91E00E9437058C2FDD
S1130B800E9422052FEF8FEF9CE22150804090407D
S1130B90E1F700C00000C13319F40E94450712C0F8
S1130BA0C23329F48EE592E00E940D030BC0C333D7
S1130BB029F48EE592E00E94A20104C081EB91E049
S1130BC00E9437050E941E058CE00E9446050E9483
S1130BD01E058DEC91E00E9437052FEF8FE796E11B
S1130BE0215080409040E1F700C00000CF9108956B
S1130BF088E087BB8AE683BF80E88CBF89B78061C1
S1130C0089BF8EB58C608EBD80E890E79BBD8ABDA0
S1130C1080EF81BB8ABB8BB3806F8BBB78948CE0F5
S1130C200E9446050E941E058DEC91E00E94370546
S1130C302FEF8FE796E1215080409040E1F700C00C
S1130C4000000E94EC038F3211F00E94AB052FEFDD
S1130C508FEB96E0215080409040E1F700C0000007
S1130C60F0CF0E941E058DED91E00E943705089596
S1130C700E941E0587EE91E00E9437050895CF93E8
S1130C80DF930E941E0561E081E00E94140584EC5C
S1130C9092E00E94370560E081E00E941405E09133
S1130CA06402F0916502EB57FF4F8081CBE7D0E0FF
S1130CB08A8388810E9422058A810E9422058C8170
S1130CC00E9422052FEF8FE392E021508040904054
S1130CD0E1F700C000008091790090917A00892B9F
S1130CE011F40E94310664EB72E084EC92E00E94FD
S1130CF07308892B59F02FEF8FE796E1215080403C
S1130D009040E1F700C000000E943806DF91CF91C7
S1130D100895CF93DF930E941E0560E080E00E9457
S1130D20140585EF91E00E94370561E084E00E949C
S1130D301405C0E0D0E005C087E092E00E943705CA
S1130D4021968091790090917A00C817D907A4F36D
S1130D502FEF8FEB91E2215080409040E1F700C0EB
S1130D600000DF91CF91089520E030E01CC0F9012C
S1130D70EC54FD4F9081981314C0F901EC53FD4FCE
S1130D80808340916202509163024F5F5F4F5093A2
S1130D9063024093620241E050E050936102409349
S1130DA060022F5F3F4FE4EBF2E001900020E9F78F
S1130DB03197E45BF2402E173F07C8F20E943F06CA
S1130DC08091600290916102892B79F40E948906D6
S1130DD08091790090917A00019790937A008093A2
S1130DE079000E9489060E943F060895859B12C0DF
S1130DF080916402909165020197909365028093BB
S1130E0064020196C1F485E190E0909365028093B9
S1130E10640211C0879B0FC08091640290916502A7
S1130E2001969093650280936402469721F4109290
S1130E3065021092640260E082E00E941405E09171
S1130E406402F0916502EB57FF4F808180937D002F
S1130E500E9422058FEF9FE724E0815090402040BC
S1130E60E1F700C00000869902C0849B0DC0109277
S1130E70610210926002E0916402F0916502EB5706
S1130E80FF4F80810E94B40608950E941E0560E011
S1130E9084E00E9414058BE092E00E9437052FEF56
S1130EA08FEF9CE2215080409040E1F700C00000A9
S1130EB00E941E0560E084E00E94140583E192E034
S1130EC00E9437052FEF8FEF9CE221508040904025
S1130ED0E1F700C000000E941E0560E080E00E946F
S1130EE014058AE192E00E94370561E080E00E94E7
S1130EF0140587E292E00E9437052FEF8FE793E411
S1130F00215080409040E1F700C000000E941E057F
S1130F1060E080E00E94140584E392E00E943705BB
S1130F2061E080E00E94140584E492E00E943705A9
S1130F302FEF8FE793E4215080409040E1F700C009
S1130F40000022B78DEC289F812D1124869586956B
S1130F508695880F982F990F990F890F281B822F38
S1130F6090E0880F991FBC01660F771F660F771FEB
S1130F70660F771F681B790B65567F4F84EB92E0F1
S1130F800E946C08E4EBF2E001900020E9F731974D
S1130F90E45BF24080E090E006C0DC01AC53BD4F5E
S1130FA02FE52C9301968E179F07BCF3FC01EC539D
S1130FB0FD4F10820E943F060E94F6062FEF8FE13C
S1130FC091E0215080409040E1F700C00000F4CF50
S1130FD097FB072E16F4009407D077FD09D00E94E2
S1130FE0FC0707FC05D03EF4909581959F4F08952A
S1130FF0709561957F4F0895AA1BBB1B51E107C0F3
S1131000AA1FBB1FA617B70710F0A61BB70B881F94
S1131010991F5A95A9F780959095BC01CD01089523
S11310208F929F92AF92BF92CF92DF92EF92FF92F4
S1131030CF93DF93EC01688179818A819B8161156B
S113104071058105910521F464E279ED8BE597E062
S11310502DE133EF41E050E00E948D0849015A012F
S11310609B01AC01A7EAB1E40E94AC086B017C01CE
S1131070ACEEB4EFA50194010E94BA08DC01CB01E7
S11310808C0D9D1DAE1DBF1DB7FF03C00197A109A7
S1131090B04888839983AA83BB839F77DF91CF91DC
S11310A0FF90EF90DF90CF90BF90AF909F908F9084
S11310B008950E941008089580E690E00E941008A8
S11310C00895A0E0B0E08093600090936100A09345
S11310D06200B09363000895FB01DC0101900D925E
S11310E00020E1F70895FB0151915523A9F0BF01B8
S11310F0DC014D9145174111E1F759F4CD010190FF
S1131100002049F04D9140154111C9F3FB014111F3
S1131110EFCF81E090E001970895052E97FB1EF430
S113112000940E94A40857FD07D00E94BF0807FC42
S113113003D04EF40C94A408509540953095219515
S11311403F4F4F4F5F4F08959095809570956195EF
S11311507F4F8F4F9F4F08950E94E108A59F900DE8
S1131160B49F900DA49F800D911D11240895B7FF85
S11311700C94AC080E94AC08821B930B0895A1E266
S11311801A2EAA1BBB1BFD010DC0AA1FBB1FEE1FFD
S1131190FF1FA217B307E407F50720F0A21BB30B48
S11311A0E40BF50B661F771F881F991F1A9469F7C4
S11311B060957095809590959B01AC01BD01CF0120
S11311C00895A29FB001B39FC001A39F700D811D1C
S11311D01124911DB29F700D811D1124911D08953C
S10711E0F894FFCFAD
S11311E40100000020A5FC4131323342343536433A
S11311F4373839442A30230F0003003C2020203E92
S113120400000000004142434445464748494A4BD4
S11312144C4D4E4F5052535455565A5547524144CF
S113122442454E49000000000041544D45474100E9
S11312340000000000000050524F4A454B54000087
S1131244000000000053454E5A4F5249000000006C
S1131254000000524954454800000000000000000A
S11312640050524F4752414D455200000000005275
S1131274494A454B41000000000000000050524F11
S113128454455553000000000000004153454D42AD
S11312944C45520000000000004B5554494A41009B
S11312A4000000000000005661736920626F646FDF
S11312B476693A20005672696A656D65206A65200C
S11312C4697374656B6C6F005061632D6D616E217D
S11312D400536B75706920626F646F7665007520C6
S11312E431302073656B756E646900506F67726585
S11312F4736E6F00202020202020202000520054F0
S1131304004C0044005672696A656D652069736512
S1131314746B6C6F21004F64616272616C69207339
S113132474653A006967726963752062726F6A2032
S1131334004F64616272616C6920737465206E6528
S113134476617A6563692062726F6A2E004F646104
S113135462657269206967726963753A0047616DF1
S113136465206F76657200506F676F64696C6920DD
S113137473746521005072656F7374616C69207AAB
S113138469766F74693A003C332000564A455341E8
S11313944C410055505554453A003C2070726974D0
S11313A469736E692031003E207072697469736ECA
S11313B4692033007A61206F646162697220736CFE
S11313C46F7661007072697469736E69203200000B
S9030000FC
