S018000075727350726F6A656B744B65797061642E7372656375
S11300000C942A000C9447000C9447000C9447006D
S11300100C9447000C9447000C9447000C94470040
S11300200C9447000C9447000C9447000C94470030
S11300300C9447000C9447000C9447000C94470020
S11300400C9447000C9447000C9447000C94470010
S11300500C94470011241FBECFE5D4E0DEBFCDBF12
S113006011E0A0E6B0E0E6E2F7E002C005900D92F0
S1130070AA36B107D9F721E0AAE6B1E001C01D9282
S1130080A239B207E1F70E94B0010C9491030C94D9
S1130090000080EF87BB8FEF88BB8FEE88BB96B3E1
S11300A0809170008923809370018F3019F0109231
S11300B0710129C08FED88BB96B3809170008923AC
S11300C0809370018F3021F081E0809371011BC017
S11300D08FEB88BB96B38091700089238093700165
S11300E08F3021F082E0809371010DC08FE788BBCF
S11300F096B3809170008923809370018F3019F03A
S113010083E080937101809170018E3039F4E09125
S11301107101F0E0E05AFF4F808108958D3039F489
S1130120E0917101F0E0E05AFF4F848108958B3033
S113013039F4E0917101F0E0E05AFF4F80850895B1
S1130140873009F0AACFE0917101F0E0E05AFF4F47
S11301508485089582B3806882BB00C082B38F77A0
S113016082BB0895CF93DF93D82F662321F082B307
S1130170806282BB03C082B38F7D82BB82B38F7BDC
S113018082BB81B38F6081BBC2B3C07F8D2F829548
S11301908F708C2B82BB0E94AA00DF70DC2BD2BB39
S11301A00E94AA00CF60C2BBDF91CF91089588233B
S11301B021F082B3806282BB03C082B38F7D82BB95
S11301C082B3806482BB81B3807F81BB82B3806849
S11301D082BB00C090B39295907F82B38F7782BB2D
S11301E000C082B3806882BB00C080B38F7022B32A
S11301F02F7722BB892B089580E00E94D7008823A3
S1130200DCF383E090E00197F1F780E00E94D700EF
S11302100895CF93C82F0E94FC0060E08C2F0E94A9
S1130220B200CF910895611104C080580E94090161
S1130230089580540E940901089581E00E940901F3
S11302400895CF93C82F0E94FC00CA3049F480342B
S113025010F480E401C080E080580E94090104C0C9
S113026061E08C2F0E94B200CF910895CF93DF9369
S1130270FC0103C00E942101FE01EF01219680814F
S11302808111F8CFDF91CF9108951F93CF93DF931E
S1130290182F81B38F6081BB81B3806281BB81B32E
S11302A0806481BB81B3806881BB80E393E701975D
S11302B0F1F782B3826082BB82B3816082BB0E9409
S11302C0AA0080EF93E20197F1F70E94AA00C5E724
S11302D0D0E0CE010197F1F70E94AA00CE01019768
S11302E0F1F782B38E7F82BB0E94AA002197F1F7B7
S11302F088E20E94090188E00E9409010E941D0110
S113030086E00E940901812F0E940901DF91CF91AB
S11303101F910895CF93C82F0E941D0160E081E0D2
S11303200E9413018CEC90E00E94360161E081E0B0
S11303300E9413018AED90E00E9436018C2F0E94E6
S113034021012FEF8FEF9CE2215080409040E1F794
S113035000C00000C13311F40E94E602CF91089559
S113036080E181BB81E28FBD8AE08EBD80E890E0B0
S113037099BD88BD8CE00E9445010E941D0187EE55
S113038090E00E9436010E9449000E948A012FEFEA
S11303908FEB96E0215080409040E1F700C00000D0
S11303A0F2CF0E941D0187EF90E00E94360108956C
S11303B00E941D0181E091E00E9436010895CF93CF
S11303C0DF930E941D0161E081E00E94130182E835
S11303D091E00E94360160E081E00E941301E09107
S11303E06E01F0916F01E258FF4F8081C4E7D0E0C5
S11303F08A8388810E9421018A810E9421018C8143
S11304000E9421012FEF8FE392E021508040904021
S1130410E1F700C000008091720090917300892B75
S113042011F40E94D10162E771E082E891E00E9438
S11304307703892B59F02FEF8FE796E12150804005
S11304409040E1F700C000000E94D801DF91CF91F5
S11304500895CF93DF930E941D0160E080E00E9425
S113046013018FE091E00E94360161E084E00E9474
S11304701301C0E0D0E005C081E291E00E943601A2
S113048021968091720090917300C817D907A4F344
S11304902FEF8FEB91E2215080409040E1F700C0B4
S11304A00000DF91CF91089520E030E01CC0F901F5
S11304B0EE58FE4F9081981314C0F901EE57FE4F89
S11304C0808340916C0150916D014F5F5F4F509359
S11304D06D0140936C0141E050E050936B014093F7
S11304E06A012F5F3F4FE2E7F1E001900020E9F756
S11304F03197E257F1402E173F07C8F20E94DF01FF
S113050080916A0190916B01892B79F40E942902F0
S1130510809172009091730001979093730080937F
S113052072000E9429020E94DF010895CF93C82F10
S1130530813391F480916E0190916F0101979093B2
S11305406F0180936E010196C1F485E190E0909370
S11305506F0180936E0111C0833379F480916E0131
S113056090916F01019690936F0180936E0146976D
S113057021F410926F0110926E0160E082E00E94FB
S11305801301E0916E01F0916F01E258FF4F8081F9
S1130590809376000E9421018FEF9FE724E0815031
S11305A090402040E1F700C00000C23369F410928B
S11305B06B0110926A01E0916E01F0916F01E258B3
S11305C0FF4F80810E945402CF9108950E941D0123
S11305D060E084E00E94130185E291E00E9436010C
S11305E02FEF8FEF9CE2215080409040E1F700C054
S11305F000000E941D0160E084E00E9413018DE26E
S113060091E00E9436012FEF8FEF9CE22150804051
S11306109040E1F700C000000E941D0160E080E00E
S11306200E94130184E391E00E94360161E080E0BE
S11306300E94130181E491E00E9436012FEF8FE7BD
S113064093E4215080409040E1F700C000000E94F4
S11306501D0160E080E00E9413018EE491E00E949D
S1130660360161E080E00E9413018EE591E00E9472
S113067036012FEF8FE793E4215080409040E1F75B
S113068000C0000064E970E082E791E00E9470031A
S1130690E2E7F1E001900020E9F73197E257F140F9
S11306A080E090E006C0DC01AE57BE4F2FE52C93EE
S11306B001968E179F07BCF3FC01EE57FE4F108284
S11306C00E94DF010E9449000E9496022FEF8FEFE3
S11306D098E0215080409040E1F700C00000F2CF44
S11306E0FB01DC0101900D920020E1F70895FB016C
S11306F051915523A9F0BF01DC014D9145174111DA
S1130700E1F759F4CD010190002049F04D914015D5
S11307104111C9F3FB014111EFCF81E090E0019752
S10907200895F894FFCFD8
S1130726413132334234353643373839442A30235B
S11307360F0003003C2020203E0000000000414240
S1130746434445464748494A4B4C4D4E4F505253F5
S11307565455565A4A414B4F5600000000000000BB
S113076600004C5543494A410000000000000000C7
S11307765041554C410000000000000000004C4F61
S113078656524F0000000000000000004F646162F2
S113079672616C69207374653A006967726963757E
S11307A62062726F6A20004F646162657269206913
S11307B66772696375210047616D65206F7665729E
S11307C600506F676F64696C69207374652100500B
S11307D672656F7374616C69207A69766F74693AAD
S11307E6003C332000564A4553414C410055505570
S11307F654453A003C207072697469736E692031FD
S1130806003E207072697469736E692033007A61E0
S1130816206F646162697220736C6F766100707216
S10D0826697469736E6920320000E2
S9030000FC
