:100000000C942A000C9447000C9447000C94470071
:100010000C9447000C9447000C9451050C94470035
:100020000C9447000C9447000C9447000C94470034
:100030000C9447000C9447000C9447000C94470024
:100040000C9447000C9447000C9447000C94470014
:100050000C94470011241FBECFE5D4E0DEBFCDBF16
:1000600012E0A0E6B0E0E2EEFFE002C005900D92E3
:10007000A634B107D9F722E0A6E4B2E001C01D9290
:10008000A63CB207E1F70E94B5050C94EF070C946B
:100090000000CF93DF930E94DB0460E080E00E94C9
:1000A000D10486E291E00E94F4048091480290918C
:1000B0004902CAE0D0E0BE010E94E70680E3860F55
:1000C0000E94DF048091480290914902BE010E9483
:1000D000E706805D0E94DF04DF91CF9108950E94C2
:1000E000DB0484E391E00E94F4042FEF8FE796E1B4
:1000F000215080409040E1F700C000000E9449007C
:100100002FEF8FE793E4215080409040E1F700C04B
:100110000000089520E030E01BC0F901EE0FFF1F42
:10012000E80FF91F0190F081E02DE617F70771F451
:10013000EC56FD4FA0916500A083E0914802F0913C
:1001400049023196F0934902E09348022F5F3F4FF6
:100150002417350714F308950E94DB0460E080E063
:100160000E94D10484E992E00E94F40461E080E0FE
:100170000E94D1048CE692E00E94F4042FEF8FE3FA
:1001800092E0215080409040E1F700C000000895C7
:10019000209150023091510230934D0220934C0235
:1001A00040914E0250914F0250934B0240934A02AD
:1001B000843381F4BA016150710970934F026093E6
:1001C0004E026F3F7F4F31F46FE070E070934F024B
:1001D00060934E02863391F420914E0230914F028B
:1001E0002F5F3F4F30934F0220934E022031310555
:1001F00031F510924F0210924E0221C0823371F4F9
:100200002F5F3F4F3093510220935002223031052F
:10021000B1F4109251021092500211C0883379F457
:100220002150310930935102209350022F3F3F4F0C
:1002300031F422E030E030935102209350022091BB
:100240005002309151022115310599F4843311F097
:10025000863379F4E0914E02F0914F02EC56FD4F57
:10026000809165008083FA01EC56FD4F8FE5808315
:1002700042C021153105A1F4823311F0883381F495
:1002800080914E0290914F02FC01EC56FD4F20915F
:1002900065002083FC01E459FD4F2FE520832BC02E
:1002A0002115310599F0843311F0863379F4E0910A
:1002B0004E02F0914F02E459FD4F8091650080831A
:1002C000FA01E459FD4F8FE5808315C0232B99F087
:1002D000823311F0883379F480914E0290914F026D
:1002E000FC01E459FD4F209165002083FC01EC5690
:1002F000FD4F2FE52083409192025091930260912F
:100300004E0270914F0288E592E00E948A0040916F
:100310007C0250917D0260914E0270914F028EE7F7
:1003200092E00E948A000E94AC000895AF92BF92B2
:10033000CF92DF92EF92FF920F931F93CF93DF93B1
:100340008C010E94DB0460E084E00E94D10487E419
:1003500091E00E94F4042FEF8FEF9CE22150804047
:100360009040E1F700C000000E94DB0460E080E004
:100370000E94D10480E591E00E94F40461E080E0F5
:100380000E94D1048DE591E00E94F404EFEFFFEFAD
:100390002CE2E150F0402040E1F700C000008091E5
:1003A00065008093940281E090E006C0FC01EC5669
:1003B000FD4F2FE52083019680319105BCF3FC01B0
:1003C000EC56FD4F108280E090E006C0FC01E4593D
:1003D000FD4F2FE52083019680319105BCF3FC0190
:1003E000E459FD4F1082E12CF12CA12CB12CC12C31
:1003F000D12C3AC00E945B0781709078992324F435
:1004000001978E6F9F6F0196EC010E945B076FE072
:1004100070E00E94E7060196209789F4FC01EC56F3
:10042000FD4F209164002083F601EE0FFF1FE85A74
:10043000FD4F918380838FEFC81AD80A12C0CD2B4D
:1004400081F0FC01E459FD4F209164002083F50107
:10045000EE0FFF1FE258FD4F918380839FEFA91A93
:10046000B90AEFEFEE1AFE0AFAE0EF16F10414F201
:10047000D0929302C0929202B0927D02A0927C022E
:100480000E94AC00F8018081918190934702809393
:1004900046020DC00E94A9030E94C800FFEF2FEF83
:1004A00088E0F15020408040E1F700C00000F801F2
:1004B0002081318180914602909147020F96281742
:1004C000390744F30E946F00DF91CF911F910F9184
:1004D000FF90EF90DF90CF90BF90AF90089582B7DC
:1004E000837090E008950F931F93CF93DF938B0158
:1004F000EA016BB3F8012081318147E050E0421BF3
:10050000530B21E030E002C0220F331F4A95E2F77F
:1005100026272BBB208131812C173D0741F4FC019C
:10052000208131812F5F3F4F3183208319C060E0EC
:1005300084E00E94D1048AE691E00E94F404FFEF77
:100540002FEF8CE2F15020408040E1F700C0000026
:1005500060E084E00E94D10483E791E00E94F4040B
:10056000E9E9F5E13197F1F700C080B327E030E029
:100570002C1B3D0B90E002C0959587952A95E2F7DC
:1005800080FDF3CF0E946F02F801918380836BB3EB
:1005900027E030E0281B390B81E090E002C0880F93
:1005A000991F2A95E2F786278BBBDF91CF911F9188
:1005B0000F910895EF92FF920F931F93CF93DF93C4
:1005C00000D000D0CDB7DEB77C01FC0180819181E5
:1005D00090935302809352020E94DB041A82198284
:1005E0001C821B828BB380588BBB789471C0879B15
:1005F0000AC040E050E0BE016F5F7F4FCE0103961E
:100600000E94730223C0869B0AC041E050E0BE01F5
:100610006F5F7F4FCE0103960E94730217C0859BC8
:100620000AC042E050E0BE016F5F7F4FCE010396EB
:100630000E9473020BC0849B09C043E050E0BE01DE
:100640006F5F7F4FCE0103960E94730261E081E0ED
:100650000E94D1048981805D0E94DF0489E791E0D6
:100660000E94F4048B819C810AE010E0B8010E9492
:10067000E70680E3860F0E94DF048B819C81B8012E
:100680000E94E706805D0E94DF0489E791E00E94F6
:10069000F404F7018081918120915202309153023C
:1006A000821B930BB8010E94E70680E3860F0E942D
:1006B000DF04F70180819181209152023091530231
:1006C000821B930BB8010E94E706805D0E94DF0445
:1006D000F7012081318180915202909153028896D6
:1006E000821793070CF483CF0E94DB0460E080E064
:1006F0000E94D1048CE791E00E94F40461E080E064
:100700000E94D1048B819C810AE010E0B8010E9414
:10071000E70680E3860F0E94DF048B819C81B8018D
:100720000E94E706805D0E94DF04FFEF2FE38BE06D
:10073000F15020408040E1F700C000000F900F9082
:100740000F900F90DF91CF911F910F91FF90EF903D
:10075000089580EF8ABB8FEF8BBB8FEE8BBB99B375
:100760008091760089238093A4028F3019F0109233
:10077000A50229C08FED8BBB99B3809176008923A8
:100780008093A4028F3021F081E08093A5021BC0EA
:100790008FEB8BBB99B38091760089238093A40261
:1007A0008F3021F082E08093A5020DC08FE78BBBD4
:1007B00099B38091760089238093A4028F3019F039
:1007C00083E08093A5028091A4028E3039F4E091F9
:1007D000A502F0E0EA59FF4F808108958D3039F489
:1007E000E091A502F0E0EA59FF4F848108958B3033
:1007F00039F4E091A502F0E0EA59FF4F80850895B1
:10080000873039F4E091A502F0E0EA59FF4F848582
:1008100008958FE2089588B3806888BB00C088B3CC
:100820008F7788BB0895CF93C82F662321F088B3B4
:10083000806288BB03C088B38F7D88BB88B38F7B01
:1008400088BB87B3816087BB87B3826087BB87B370
:10085000846087BB87B3806187BB88B38F7E88BB8A
:1008600088B38B7F88BB88B38D7F88BB88B38E7F2E
:1008700088BBCC231CF488B3806188BBC6FF03C04F
:1008800088B3846088BBC5FF03C088B3826088BB1F
:10089000C4FF03C088B3816088BB0E940B0488B387
:1008A0008F7E88BB88B38B7F88BB88B38D7F88BBE6
:1008B00088B38E7F88BBC3FF03C088B3806188BBC9
:1008C000C2FF03C088B3846088BBC1FF03C088B384
:1008D000826088BBC0FF03C088B3816088BB0E9470
:1008E0000B0488B3816088BB88B3826088BB88B3FF
:1008F000846088BB88B3806188BBCF9108958823CA
:1009000021F088B3806288BB03C088B38F7D88BB29
:1009100088B3806488BB87B38E7F87BB87B38D7FA6
:1009200087BB87B38B7F87BB87B38F7E87BB88B33B
:10093000806888BB00C0B09902C080E001C080E13F
:10094000B1998062B2998064B499806898B39F77B6
:1009500098BB00C098B3906898BB00C0B099816004
:10096000B1998260B2998460B499886098B39F7796
:1009700098BB089580E00E947F048823DCF383E025
:1009800090E00197F1F780E00E947F040895CF93F3
:10099000C82F0E94BA0460E08C2F0E941304CF91EC
:1009A0000895611104C080580E94C70408958054BE
:1009B0000E94C704089581E00E94C7040895CF9360
:1009C000C82F0E94BA04CA3049F4803410F480E47D
:1009D00001C080E080580E94C70404C061E08C2FF1
:1009E0000E941304CF910895CF93DF93FC0103C0BD
:1009F0000E94DF04FE01EF01219680818111F8CF72
:100A0000DF91CF9108951F93CF93DF93182F87B372
:100A1000806287BB87B3806487BB87B3806887BBEE
:100A200087B3816087BB87B3826087BB87B38460ED
:100A300087BB87B3806187BB80E393E70197F1F7BA
:100A400088B3826088BB88B3816088BB0E940B0436
:100A500080EF93E20197F1F70E940B04C5E7D0E025
:100A6000CE010197F1F70E940B04CE010197F1F737
:100A700088B38E7F88BB0E940B042197F1F788E230
:100A80000E94C70488E00E94C7040E94DB0486E03D
:100A90000E94C704812F0E94C704DF91CF911F914C
:100AA00008951F920F920FB60F9211248F939F9368
:100AB0008091540290915502019690935502809333
:100AC00054029F918F910F900FBE0F901F90189519
:100AD000CF93C82F0E94DB0460E081E00E94D10424
:100AE0008DE891E00E94F40461E081E00E94D1046D
:100AF0008BE991E00E94F4048C2F0E94DF042FEF19
:100B00008FEF9CE2215080409040E1F700C0000050
:100B1000C13319F40E94460612C0C23329F484E599
:100B200092E00E94DA020BC0C33329F484E592E01C
:100B30000E94960104C088EA91E00E94F4040E9499
:100B4000DB048CE00E9403050E94DB0484EC91E04E
:100B50000E94F4042FEF8FE796E1215080409040EF
:100B6000E1F700C00000CF91089588E087BB8AE6D6
:100B700083BF80E88CBF89B7806189BF8EB58C60E8
:100B80008EBD80E890E79BBD8ABD80EF81BB8ABBAC
:100B90008BB3806F8BBB78948CE00E9403050E941E
:100BA000DB0484EC91E00E94F4042FEF8FE796E1E0
:100BB000215080409040E1F700C000000E94A9034E
:100BC0008F3211F00E9468052FEF8FEB96E02150D5
:100BD00080409040E1F700C00000F0CF0E94DB04AD
:100BE00084ED91E00E94F40408950E94DB048EEDF0
:100BF00091E00E94F4040895CF93DF930E94DB04F8
:100C000061E081E00E94D10486EB92E00E94F4044E
:100C100060E081E00E94D104E0915602F091570219
:100C2000EC57FF4F8081CAE7D0E08A8388810E9419
:100C3000DF048A810E94DF048C810E94DF042FEF91
:100C40008FE392E0215080409040E1F700C0000027
:100C50008091780090917900892B11F40E94EE0523
:100C600066EA72E086EB92E00E947207892B59F0E7
:100C70002FEF8FE796E1215080409040E1F700C0D0
:100C800000000E94F505DF91CF9108950E94DB04DA
:100C900060E084E00E94D10482E092E00E94F404CB
:100CA0002FEF8FEF9CE2215080409040E1F700C091
:100CB00000000E94DB0460E084E00E94D1048AE02E
:100CC00092E00E94F4042FEF8FEF9CE221508040CD
:100CD0009040E1F700C000000E94DB0460E080E08B
:100CE0000E94D10481E192E00E94F40461E080E07E
:100CF0000E94D1048EE192E00E94F4042FEF8FE76E
:100D000093E4215080409040E1F700C000000E9431
:100D1000DB0460E080E00E94D1048BE292E00E945C
:100D2000F40461E080E00E94D1048BE392E00E9431
:100D3000F4042FEF8FE793E4215080409040E1F7D7
:100D400000C0000022B78DEC289F812D11248695CC
:100D500086958695880F982F990F990F890F281BD4
:100D6000822F90E0880F991FBC01660F771F660FD6
:100D7000771F660F771F681B790B66567F4F86EAD1
:100D800092E00E946B07E6EAF2E001900020E9F7AA
:100D90003197E65AF24080E090E006C0DC01AA54A8
:100DA000BD4F2FE52C9301968E179F07BCF3FC01D6
:100DB000EA54FD4F10820E94FC052FEF8FEF98E060
:100DC000215080409040E1F700C00000F6CF97FB33
:100DD000072E16F4009407D077FD09D00E94FB0679
:100DE00007FC05D03EF4909581959F4F089570952E
:100DF00061957F4F0895AA1BBB1B51E107C0AA1F35
:100E0000BB1FA617B70710F0A61BB70B881F991FAB
:100E10005A95A9F780959095BC01CD0108958F92C0
:100E20009F92AF92BF92CF92DF92EF92FF92CF93B9
:100E3000DF93EC01688179818A819B81611571055D
:100E40008105910521F464E279ED8BE597E02DE1D0
:100E500033EF41E050E00E948C0749015A019B01A9
:100E6000AC01A7EAB1E40E94AB076B017C01ACEED8
:100E7000B4EFA50194010E94B907DC01CB018C0DF0
:100E80009D1DAE1DBF1DB7FF03C00197A109B0484E
:100E900088839983AA83BB839F77DF91CF91FF904B
:100EA000EF90DF90CF90BF90AF909F908F9008957C
:100EB0000E940F07089580E690E00E940F070895B2
:100EC000A0E0B0E08093600090936100A093620086
:100ED000B09363000895FB01DC0101900D920020A6
:100EE000E1F70895FB0151915523A9F0BF01DC0101
:100EF0004D9145174111E1F759F4CD0101900020C2
:100F000049F04D9140154111C9F3FB014111EFCF5B
:100F100081E090E001970895052E97FB1EF4009460
:100F20000E94A30757FD07D00E94BE0707FC03D00D
:100F30004EF40C94A30750954095309521953F4F62
:100F40004F4F5F4F089590958095709561957F4FB5
:100F50008F4F9F4F08950E94E007A59F900DB49F6B
:100F6000900DA49F800D911D11240895B7FF0C943E
:100F7000AB070E94AB07821B930B0895A1E21A2EC8
:100F8000AA1BBB1BFD010DC0AA1FBB1FEE1FFF1F2D
:100F9000A217B307E407F50720F0A21BB30BE40B7D
:100FA000F50B661F771F881F991F1A9469F76095C4
:100FB0007095809590959B01AC01BD01CF0108957E
:100FC000A29FB001B39FC001A39F700D811D11248A
:100FD000911DB29F700D811D1124911D0895F894EB
:020FE000FFCF41
:100FE200010000002E3C4131323342343536433762
:100FF2003839442A30230F0003003C2020203E00D1
:10100200000000004142434445464748494A4B4C90
:101012004D4E4F5052535455565A554752414442E1
:10102200454E49000000000041544D454741000033
:1010320000000000000050524F4A454B540000008F
:101042000000000053454E5A4F5249000000000074
:101052000000524954454800000000000000000012
:1010620050524F4752414D45520000000000524934
:101072004A454B41000000000000000050524F540E
:10108200455553000000000000004153454D424CBD
:1010920045520000000000004B5554494A410000EF
:1010A2000000000000005661736920626F646F7671
:1010B200693A20005672696A656D65206A65206921
:1010C2007374656B6C6F005061632D6D616E2100EE
:1010D200536B75706920626F646F7665007520319D
:1010E200302073656B756E646900506F677265734B
:1010F2006E6F002020202020202020005672696A76
:10110200656D6520697365746B6C6F21004F646156
:101112006272616C69207374653A0069677269630F
:10112200752062726F6A20004F64616272616C693D
:1011320020737465206E6576617A656369206272D8
:101142006F6A2E004F646162657269206967726915
:1011520063753A0047616D65206F76657200506F66
:10116200676F64696C692073746521005072656FE2
:101172007374616C69207A69766F74693A003C33E2
:101182002000564A4553414C410055505554453A6A
:10119200003C207072697469736E692031003E20D0
:1011A2007072697469736E692033007A61206F64AA
:1011B2006162697220736C6F766100707269746922
:0611C200736E692032008B
:00000001FF
