:100000000C942A000C9447000C9447000C94470071
:100010000C9447000C9447000C945F000C9447002C
:100020000C9447000C9447000C9447000C94470034
:100030000C9447000C9447000C9447000C94470024
:100040000C9447000C9447000C9447000C94470014
:100050000C94470011241FBECFE5D4E0DEBFCDBF16
:1000600011E0A0E6B0E0E6E5FBE002C005900D92ED
:10007000A03EB107D9F722E0A0EEB1E001C01D9289
:10008000AA30B207E1F70E9486030C94A9050C94EC
:10009000000080EF81BB879909C086990AC08599C5
:1000A0000BC0849BF8CF83E090E0089581E090E05E
:1000B000089582E090E0089583E090E008951F9213
:1000C0000F920FB60F9211248F939F938091E001AE
:1000D0009091E10101969093E1018093E0019F915D
:1000E0008F910F900FBE0F901F90189582B783705D
:1000F00090E008950F931F93CF93DF938B01EA0154
:100100006BB3F8012081318147E050E0421B530B73
:1001100021E030E002C0220F331F4A95E2F7262784
:100120002BBB208131812C173D0741F4FC0120813C
:1001300031812F5F3F4F3183208319C060E084E01D
:100140000E94DB0280E291E00E94FE02FFEF2FEFAF
:100150008CE2F15020408040E1F700C0000060E0F8
:1001600084E00E94DB0289E291E00E94FE02E9E95C
:10017000F5E13197F1F700C080B327E030E02C1BA8
:100180003D0B90E002C0959587952A95E2F780FD9A
:10019000F3CF0E947600F801918380836BB327E050
:1001A00030E0281B390B81E090E002C0880F991FD6
:1001B0002A95E2F786278BBBDF91CF911F910F9194
:1001C0000895EF92FF920F931F93CF93DF9300D088
:1001D00000D0CDB7DEB70E94E5021A8219821C82D8
:1001E0001B828BB380588BBB789401E010E0ACC0CD
:1001F0008091E0019091E101889769F50E94E50204
:1002000060E080E00E94DB0282E391E00E94FE0257
:1002100061E080E00E94DB028B819C810AE010E0BB
:10022000B8010E94600580E3860F0E94E9028B817D
:100230009C81B8010E946005805D0E94E9022FEF59
:100240008FE39BE0215080409040E1F700C0000028
:1002500000E010E079C0879B0DC00115110551F039
:1002600040E050E0BE016F5F7F4FCE0103960E94D9
:100270007A002CC0869B0DC00115110551F041E09C
:1002800050E0BE016F5F7F4FCE0103960E947A005F
:100290001DC0859B0DC00115110551F042E050E0D5
:1002A000BE016F5F7F4FCE0103960E947A000EC0A1
:1002B000849B0CC00115110549F043E050E0BE01DC
:1002C0006F5F7F4FCE0103960E947A0001151105E2
:1002D000D9F161E081E00E94DB028981805D0E94AA
:1002E000E9028FE291E00E94FE028B819C810F2E39
:1002F000FAE0EF2EF12CF02DB7010E94600580E3AB
:10030000860F0E94E9028B819C81B7010E946005E3
:10031000805D0E94E9028FE291E00E94FE028091DE
:10032000E0019091E101B7010E94600580E3860F32
:100330000E94E9028091E0019091E101B7010E94E1
:100340006005805D0E94E9020115110509F050CF9A
:100350000F900F900F900F90DF91CF911F910F9101
:10036000FF90EF90089580EF8ABB8FEF8BBB8FEEED
:100370008BBB99B38091700089238093E8018F3003
:1003800019F01092E90129C08FED8BBB99B38091D0
:10039000700089238093E8018F3021F081E0809301
:1003A000E9011BC08FEB8BBB99B38091700089234F
:1003B0008093E8018F3021F082E08093E9010DC045
:1003C0008FE78BBB99B38091700089238093E801FC
:1003D0008F3019F083E08093E9018091E8018E303D
:1003E00039F4E091E901F0E0E05AFF4F808108958F
:1003F0008D3039F4E091E901F0E0E05AFF4F84815B
:1004000008958B3039F4E091E901F0E0E05AFF4FB4
:1004100080850895873039F4E091E901F0E0E05AF1
:10042000FF4F848508958FE2089588B3806888BB64
:1004300000C088B38F7788BB0895CF93C82F6623F9
:1004400021F088B3806288BB03C088B38F7D88BBEE
:1004500088B38F7B88BB87B3816087BB87B382609B
:1004600087BB87B3846087BB87B3806187BB88B352
:100470008F7E88BB88B38B7F88BB88B38D7F88BB1A
:1004800088B38E7F88BBCC231CF488B3806188BB83
:10049000C6FF03C088B3846088BBC5FF03C088B3B0
:1004A000826088BBC4FF03C088B3816088BB0E94A0
:1004B000150288B38F7E88BB88B38B7F88BB88B3D7
:1004C0008D7F88BB88B38E7F88BBC3FF03C088B392
:1004D000806188BBC2FF03C088B3846088BBC1FF52
:1004E00003C088B3826088BBC0FF03C088B381604B
:1004F00088BB0E94150288B3816088BB88B3826084
:1005000088BB88B3846088BB88B3806188BBCF9187
:100510000895882321F088B3806288BB03C088B324
:100520008F7D88BB88B3806488BB87B38E7F87BB91
:1005300087B38D7F87BB87B38B7F87BB87B38F7E66
:1005400087BB88B3806888BB00C0B09902C080E0D8
:1005500001C080E1B1998062B2998064B4998068E9
:1005600098B39F7798BB00C098B3906898BB00C0C1
:10057000B0998160B1998260B2998460B4998860C1
:1005800098B39F7798BB089580E00E9489028823E2
:10059000DCF383E090E00197F1F780E00E948902AC
:1005A0000895CF93C82F0E94C40260E08C2F0E9450
:1005B0001D02CF910895611104C080580E94D1029C
:1005C000089580540E94D102089581E00E94D102D2
:1005D0000895CF93C82F0E94C402CA3049F48034D2
:1005E00010F480E401C080E080580E94D10204C071
:1005F00061E08C2F0E941D02CF910895CF93DF936D
:10060000FC0103C00E94E902FE01EF0121968081F6
:100610008111F8CFDF91CF9108951F93CF93DF938E
:10062000182F87B3806287BB87B3806487BB87B38B
:10063000806887BB87B3816087BB87B3826087BBD5
:1006400087B3846087BB87B3806187BB80E393E710
:100650000197F1F788B3826088BB88B3816088BB5B
:100660000E94150280EF93E20197F1F70E941502B4
:10067000C5E7D0E0CE010197F1F70E941502CE0147
:100680000197F1F788B38E7F88BB0E9415022197EE
:10069000F1F788E20E94D10288E00E94D1020E9414
:1006A000E50286E00E94D102812F0E94D102DF91F3
:1006B000CF911F910895CF93C82F0E94E50260E06B
:1006C00081E00E94DB0283E491E00E94FE0261E08F
:1006D00081E00E94DB0281E591E00E94FE028C2F06
:1006E0000E94E9022FEF8FEF9CE221508040904062
:1006F000E1F700C00000C13319F40E94D60404C021
:10070000C23311F40E94E100CF91089588E087BBC5
:100710008AE683BF80E88CBF89B7806189BF8EB5C8
:100720008C608EBD80E890E79BBD8ABD80EF81BB69
:100730008ABB8BB3806F8BBB8CE00E940D030E9441
:10074000E5028EE591E00E94FE022FEF8FE796E131
:10075000215080409040E1F700C000000E94B301AA
:100760008F3211F00E945B032FEF8FEB96E0215048
:1007700080409040E1F700C00000F0CF0E94E50209
:100780008EE691E00E94FE0208950E94E50288E74D
:1007900091E00E94FE020895CF93DF930E94E5024C
:1007A00061E081E00E94DB028AEF91E00E94FE029C
:1007B00060E081E00E94DB02E091E601F091E70158
:1007C000E258FF4F8081C4E7D0E08A8388810E948D
:1007D000E9028A810E94E9028C810E94E9022FEFDE
:1007E0008FE392E0215080409040E1F700C000008C
:1007F0008091720090917300892B11F40E94BE03C6
:100800006AEE71E08AEF91E00E948F05892B59F022
:100810002FEF8FE796E1215080409040E1F700C034
:1008200000000E94C503DF91CF910895CF93DF931D
:100830000E94E50260E080E00E94DB0286E891E031
:100840000E94FE0261E084E00E94DB02C0E0D0E092
:1008500005C088E991E00E94FE0221968091720015
:1008600090917300C817D907A4F32FEF8FEB91E293
:10087000215080409040E1F700C00000DF91CF910F
:10088000089520E030E01CC0F901E651FE4F908150
:10089000981314C0F901E650FE4F80834091E401A3
:1008A0005091E5014F5F5F4F5093E5014093E401A4
:1008B00041E050E05093E3014093E2012F5F3F4F4E
:1008C000EAEEF1E001900020E9F73197EA5EF140AD
:1008D0002E173F07C8F20E94CC038091E20190914D
:1008E000E301892B79F40E941604809172009091A3
:1008F0007300019790937300809372000E94160416
:100900000E94CC030895CF93DF93EC0181309105D1
:1009100091F48091E6019091E70101979093E701AE
:100920008093E6010196C1F485E190E09093E701A0
:100930008093E60111C0029779F48091E6019091CD
:10094000E70101969093E7018093E601469721F431
:100950001092E7011092E60160E082E00E94DB0263
:10096000E091E601F091E701E258FF4F808180932A
:1009700076000E94E9028FEF9FE724E081509040CB
:100980002040E1F700C00000239769F41092E301D2
:100990001092E201E091E601F091E701E258FF4F89
:1009A00080810E944104DF91CF9108950E94E50269
:1009B00060E084E00E94DB028CE991E00E94FE028C
:1009C0002FEF8FEF9CE2215080409040E1F700C074
:1009D00000000E94E50260E084E00E94DB0284EAFD
:1009E00091E00E94FE022FEF8FEF9CE221508040A9
:1009F0009040E1F700C000000E94E50260E080E066
:100A00000E94DB028BEA91E00E94FE0261E080E03E
:100A10000E94DB0288EB91E00E94FE022FEF8FE73D
:100A200093E4215080409040E1F700C000000E9414
:100A3000E50260E080E00E94DB0285EC91E00E942C
:100A4000FE0261E080E00E94DB0285ED91E00E9401
:100A5000FE022FEF8FE793E4215080409040E1F7B2
:100A600000C0000064E970E08AEE91E00E94880511
:100A7000EAEEF1E001900020E9F73197EA5EF140FB
:100A800080E090E006C0DC01A650BE4F2FE52C931D
:100A900001968E179F07BCF3FC01E650FE4F1082B3
:100AA0000E94CC030E9449000E9483042FEF8FEF25
:100AB00098E0215080409040E1F700C00000F2CF64
:100AC00097FB072E16F4009407D077FD09D00E94FB
:100AD000740507FC05D03EF4909581959F4F0895CD
:100AE000709561957F4F0895AA1BBB1B51E107C00C
:100AF000AA1FBB1FA617B70710F0A61BB70B881FAE
:100B0000991F5A95A9F780959095BC01CD0108953C
:100B1000FB01DC0101900D920020E1F70895FB013B
:100B200051915523A9F0BF01DC014D9145174111A9
:100B3000E1F759F4CD010190002049F04D914015A5
:100B40004111C9F3FB014111EFCF81E090E0019722
:060B50000895F894FFCFA8
:100B5600413132334234353643373839442A30232B
:100B66000F0003003C2020203E0000000000414210
:100B7600434445464748494A4B4C4D4E4F505253C5
:100B86005455565A554752414442454E4900000075
:100B9600000041544D4547410000000000000000A0
:100BA60050524F4A454B5400000000000000534588
:100BB6004E5A4F5249000000000000005249544569
:100BC6004800000000000000000050524F4752410C
:100BD6004D4552000000000052494A454B41000075
:100BE60000000000000050524F54455553000000CD
:100BF600000000004153454D424C455200000000A4
:100C060000004B5554494A41000000000000000016
:100C1600506F677265736E6F0020202020202020A1
:100C260020005672696A656D6520697365746B6C20
:100C36006F21004F64616272616C69207374653A5A
:100C4600006967726963752062726F6A20004F647B
:100C56006162657269206967726963753A00476106
:100C66006D65206F76657200506F676F64696C6999
:100C76002073746521005072656F7374616C69200E
:100C86007A69766F74693A003C332000564A4553B8
:100C9600414C410055505554453A003C207072690C
:100CA6007469736E692031003E20707269746973CD
:100CB6006E692033007A61206F6461626972207305
:100CC6006C6F7661007072697469736E69203200A8
:00000001FF
